:02000002D0002C
:1040000000400D000C780D00000006000C000501BA
:084010000401E80500000000B6
:0440180040730D00E4
:10401C0009480A49884208B505D0094A824202D0AB
:10402C00121A03F015F90748074A0021121A03F077
:10403C001AF9014808BD00BFB4E203206C770D00EB
:10404C002CE3032030E30320F4E7032070B501F0E8
:10405C000FFF074C074BE41AA40800251E46A54287
:10406C0004D056F8253098470135F8E770BD00BFED
:10407C0060770D0028770D0000F08AB808B500F0C5
:10408C0049F9BDE8084001F0B5BE00F039BC00F0BC
:10409C003FBC00F03DBC0078B0FA80F0400970479E
:1040AC00012303707047000008B5054901F0A7FC17
:1040BC00044B10B101221A7000E01870002008BDEA
:1040CC0054730D00C6E3032010B58AB0274902A82B
:1040DC0001F009FC264902A801F071FC254B0621D0
:1040EC0093ED000B06A801F03CFC06A902A801F018
:1040FC0062FC06A801F0B0FB1F4902A801F05FFCAE
:10410C001E4B02A8197801F069FC1D4902A801F0A8
:10411C0056FC01F09DFD1B4901F021FA01F098FDC0
:10412C00029901F01CFA184B029A1B788DF800309A
:10413C0016493C2306A800F0FBFD079C7CB1636884
:10414C00013B63605BB9236820469B689847A36872
:10415C00013BA3601BB923682046DB68984702A883
:10416C0001F07AFB00200AB010BD00BF59730D009E
:10417C005B730D00A0E303206A730D00C4E30320FE
:10418C0078730D007B730D00A8E3032087730D007B
:10419C0010B501F05DFD4FF4165101F04DFD134CBF
:1041AC000121072001F0C6FE0021072001F0D3FEFB
:1041BC000F4A1049204600F09AFC0F4A0F4920463E
:1041CC0000F095FC002309220D490E4800F020FB5D
:1041DC00002301220C490D4800F01AFB0023012298
:1041EC000B490C48BDE8104000F012BBCF4A0D0043
:1041FC008B730D00D5400D0098730D00B5400D006C
:10420C00A0E30320A4730D00C4E30320AF730D00DF
:10421C00C6E30320B6730D002DE9F041002480465F
:10422C000D462046AC420BDAF8E8026702F0F4FACD
:10423C0032463B4602F0A4F902F004FE0134F1E7E9
:10424C0090FBF5F002F0E8FA41EC100BBDE8F081C0
:10425C002DE9F34705468A46FFF7DEFF0024264684
:10426C00544521DA53EC102BF5E802018DED000BCF
:10427C0002F084F980463046894602F0CDFA424677
:10428C0006460F464B464046494602F02BFB02467B
:10429C000B463046394602F073F902F0D3FD013477
:1042AC0006469DED000BDBE796FBFAF002F0B4FA44
:1042BC0041EC100B02B0BDE8F04702F029B8000049
:1042CC0073B5122001F060FE0E4B0F4E1860642384
:1042DC000093002340F2FF32194600F041FB346892
:1042EC000A4B06251860B4FBF5F305FB1345084B88
:1042FC0003EBC50502F090FA0134C5E90001346006
:10430C0002B070BDD0E3032034E30320C0E30320EC
:10431C0038E303202DE9F04F644C85B000F03CF9F4
:10432C002368984205460BDD0021072001F013FE9F
:10433C005F4B22681B68134423605E4B00221A708B
:10434C005D4E33689D4206DDFFF7BAFF5B4B32686A
:10435C001B68134433605A4E33689D4226DD062198
:10436C005848594FFFF758FF5848594902680523D8
:10437C00B2FBF3F303EB8303D31A01EBC303013258
:10438C0083ED000B026087ED000B01F061FC5149DD
:10439C0001F0D2F801F05CFC022197ED000B01F06A
:1043AC00CAF94D4B32681B68134433604B4BDFF832
:1043BC004C911B689D4266DD05214548DFF808815C
:1043CC00474DFFF745FF57EC106B0022002310EE12
:1043DC00100A394602F0EEFC00284AD1D5E9002338
:1043EC003046394602F0CCF8D8E9002302F0ECFC58
:1043FC0000283ED02F4B4FF0010A83F800A001F0AB
:10440C0027FC384901F098F801F022FC47EC106BBE
:10441C00022101F08DF901F01BFC334901F08CF8FD
:10442C0001F016FCD5E9002383463946304602F0EC
:10443C00A7F841EC100B0221584601F07CF901F071
:10444C0007FC2A4901F078F801F002FC98ED000B0A
:10445C00022101F070F901F0FBFB254901F07FF816
:10446C005146072001F077FD114B22681B6813445D
:10447C002360D8E90023C5E900231E4B1B7813B138
:10448C00012389F8003099F8003063B11A49684665
:10449C0001F029FA6846FFF717FE684601F0DCF9CF
:1044AC00164B00221A7005B0BDE8F08F94E3032080
:1044BC00B4E20320C4E303209CE30320B8E203200E
:1044CC00ACE3032038E30320A0E3032090E30320B4
:1044DC0068E30320BC730D00BCE2032098E30320C7
:1044EC00C8E30320CD730D00D5730D00E6730D00EA
:1044FC00F7730D00C6E303204B750D00C5E30320D5
:10450C0010B5084B084C01221A7000F04DF8074901
:10451C00204601F0E8F92046054A0649BDE810405E
:10452C0001F08ABDA8E30320B0E30320FF730D0064
:10453C0030E3032065580D0008B5024B1B689B68DF
:10454C00019308BD4802030008B5024B1B681B69A8
:10455C00019308BD4802030008B5024B1B685B6958
:10456C00019308BD4802030008B5024B1B685B6C45
:10457C00019308BD4802030008B5024B1B689B6CF5
:10458C00019308BD4802030008B5024B1B685B6829
:10459C00019308BD1802030008B5024B1B685B6948
:1045AC00019308BD1802030008B5024B1B681B6879
:1045BC00019308BD2C02030008B5024B1B685B6815
:1045CC00019308BD2C02030008B5024B1B689B68C5
:1045DC00019308BD2C02030008B5024B1B68DB6875
:1045EC00019308BD2C02030008B5024B1B681B6924
:1045FC00019308BD2C02030008B5024B1B681B6B12
:10460C00019308BD2C02030008B5024B1B681B6A02
:10461C00019308BD2802030008B5024B1B685B6AB6
:10462C00019308BD2802030008B5024B1B689B6A66
:10463C00019308BD2802030008B5024B1B68DB6A16
:10464C00019308BD2802030008B5024B1B681B6BC5
:10465C00019308BD2802030008B5024B1B685B6B75
:10466C00019308BD2802030008B5024B1B681B6CA4
:10467C00019308BD2802030008B5024B1B685B6957
:10468C00019308BD6402030008B5024B1B689B68CC
:10469C00019308BD6802030008B5024B1B68DB6878
:1046AC00019308BD6802030008B5024B1B68DB6967
:1046BC00019308BD3002030008B5024B1B681B6A4E
:1046CC00019308BD3002030008B5024B1B681B6840
:1046DC00019308BD3C02030008B5024B1B68DB6864
:1046EC00019308BD3C02030008B5024B1B681B6913
:1046FC00019308BD3C02030008B5024B1B685B69C3
:10470C00019308BD3C02030008B5024B1B689B6972
:10471C00019308BD3C02030008B5024B1B68DB6922
:10472C00019308BD3C02030008B5024B1B681B6AD1
:10473C00019308BD3C02030008B5024B1B689B6A41
:10474C00019308BD3C02030008B5024B1B681B68B3
:10475C00019308BD4C02030008B5024B1B685B6853
:10476C00019308BD4C02030008B5024B1B681B6982
:10477C00019308BD4C02030008B5024B1B685B6932
:10478C00019308BD4C02030008B5024B1B689B69E2
:10479C00019308BD4C02030008B5024B1B68DB6992
:1047AC00019308BD4C02030008B5024B1B681B6A41
:1047BC00019308BD4C02030008B5024B1B685B68F3
:1047CC00019308BD2002030008B5024B1B68DB6C8B
:1047DC00019308BD2002030008B5024B1B685B6DFA
:1047EC00019308BD2002030008B5034B1B68D3F8E6
:1047FC008830019308BD00002002030008B5034B6C
:10480C001B68D3F89430019308BD0000200203000C
:10481C0008B5024B1B681B68019308BD44020300DA
:10482C0008B5024B1B685B68019308BD440203008A
:10483C0008B5024B1B685B69019308BD4402030079
:10484C0008B5024B1B681B6A019308BD44020300A8
:10485C0008B5024B1B68DB6B019308BD44020300D7
:10486C0008B5024B1B685B68019308BD400203004E
:10487C0008B5024B1B689B68019308BD40020300FE
:10488C0008B5024B1B68DB68019308BD40020300AE
:10489C0008B5024B1B681B69019308BD400203005D
:1048AC0008B5024B1B685B69019308BD400203000D
:1048BC0008B5024B1B689B69019308BD40020300BD
:1048CC0008B5024B1B68DB69019308BD400203006D
:1048DC0008B5024B1B681B6A019308BD400203001C
:1048EC0008B5024B1B681B6B019308BD400203000B
:1048FC0008B5024B1B685B6B019308BD40020300BB
:10490C0008B5024B1B681B68019308BD1C02030011
:10491C0008B5024B1B685B68019308BD1C020300C1
:10492C0008B5024B1B689B68019308BD1C02030071
:10493C0008B5024B1B68DB6A019308BD1C0203001F
:10494C0008B5024B1B681B6B019308BD1C020300CE
:10495C0008B5024B1B68DB6B019308BD1C020300FE
:10496C008A4230B507D0039D441AED1A6C43521A93
:10497C0094FBF2F4E01830BD10B5836804460BB913
:10498C0001F07BFBC3689847A3681BB10322214647
:10499C002046984720461021BDE8104001F051BB3D
:1049AC0010B50446006808B1FFF7E6FD204610BDBF
:1049BC0010B5036804469B689847A368013BA36045
:1049CC002BB923682046DB68BDE81040184710BDA2
:1049DC000B68036013B15A6801325A60704710B506
:1049EC000446006828B14368013B43600BB9FFF7EC
:1049FC00DFFF204610BD000010B5064C00232046FA
:104A0C002360FFF7B1FD2046034A0449BDE810407E
:104A1C0001F012BBD4E3032030E30320AD490D00B9
:104A2C0070470020704710B51021044601F009FBB7
:104A3C00204610BD08B508B1FFF7F5FF08BD10B54D
:104A4C008368044613B1032201469847204610BDE3
:104A5C000022026010B54FF69C728280B1F90440BE
:104A6C0084808A8002680C6804600A6010BD10B5EE
:104A7C0004460068FFF74CFF204610BD38B5C468EB
:104A8C00F4B12378022B03D104F10C00FFF7EFFFF4
:104A9C00656835B12846FFF7D2FF1021284601F092
:104AAC00D0FAA56835B12846FFF7C9FF1021284672
:104ABC0001F0C7FA20461421BDE8384001F0C1BA14
:104ACC0038BD10B588B00446684600F00CFF694646
:104ADC0004A800F02AFF04A8A047044604A800F08C
:104AEC00BBFE684600F0B8FE204608B010BDF0B51D
:104AFC00102485B007460E4615460021224668460E
:104B0C0002F0B1FB002269461046ADF80040029756
:104B1C0003960195FFF784FE05B0F0BD13B504466E
:104B2C0091E8050000234B600B602060626001A8D7
:104B3C0001930093FFF753FF204602B010BDF7B569
:104B4C000C4602AD54F8043B45F8083D06460F46AA
:104B5C0001A82146FFF73CFF29463046FFF7DEFF50
:104B6C0001A8FFF73CFF2046FFF739FF3846082124
:104B7C0001F067FA304603B0F0BD13B50B4604469E
:104B8C0003C88DE8030093E8030084E803009DE864
:104B9C00030083E8030002B010BD000038B5002309
:104BAC000446036010200D46FFF76FFA28B101236D
:104BBC0043608360024B0360C5602060204638BDB3
:104BCC0020740D00826810B50AB901F056FAC3685A
:104BDC00BDE81040184708B5006800F11001FFF758
:104BEC00F1FF08BD826810B50AB901F046FAC36836
:104BFC00BDE81040184708B5006800F11001FFF738
:104C0C00F1FF08BD38B5002383608B6804460D4660
:104C1C002BB102229847EB68E360AB68A360204697
:104C2C0038BD0000F0B589B004686846FFF710FF86
:104C3C0000238DF808304FF00202D4E84F3F002BD0
:104C4C0003D1C4E8412F0029F7D102D08DF80830E8
:104C5C0063E014F10C0503D069462846FFF7F8FE13
:104C6C00BFF35F8F01236370002004F10803BFF3CF
:104C7C005F8F53E8006F43E80002002AF9D1BFF3BD
:104C8C005F8F002E49D0FFF79FFD20B1294630469B
:104C9C00FFF798FF3AE0314602A8FFF7B3FFE06850
:104CAC00B4F9105008B102F021FB06901020ADF8B9
:104CBC001C50FFF7EAF90546E8B100278760182079
:104CCC00FFF7E3F9044688B10146876002A8FFF7B5
:104CDC0054FF049BA268A360059B049206A9E2689A
:104CEC00E36004F110000592FFF7B2FE0D4BEB6090
:104CFC000D4B2C60AB6006A8FFF7B9FE02A8FFF7BE
:104D0C009EFE002229460948FFF766FD3046FFF754
:104D1C0096FE1021304601F094F96846FFF7A7FE85
:104D2C0009B0F0BDE34B0D00594E0D0085490D0047
:104D3C002DE9F04F8BB006460F46904699469DF8EC
:104D4C0050A0FFF775FD07AD834630BB4FF62E73B1
:104D5C00059005A92846ADF81830FFF779FE142008
:104D6C00FFF793F9044658B10223037001234370F3
:104D7C00C0F804B0C0F808B029460C30FFF768FE44
:104D8C003046214640F8044BFFF708FF2846FFF752
:104D9C006EFE05A8FFF76BFE52E000240C231420D6
:104DAC006C60AC600793FFF770F9014618B10470A2
:104DBC0044704460846004A80391FFF7EFFE224B1B
:104DCC0008930820FFF761F9044628B1039B40F8CB
:104DDC00043B04A9FFF7FCFD00955FFA8AF34A46F1
:104DEC00414638460994FFF72BFD20B9039B5B78AD
:104DFC0003F0FF0283B1039B059304A906A8FFF7F8
:104E0C00E7FD05A93046FFF789FE06A8FFF7E7FD89
:104E1C0004A8FFF7E4FD13E04FF69C7305A903A863
:104E2C000592ADF81830FFF7FDFE05A8FFF71FFE41
:104E3C0005A80999FFF783FE06A8FFF7D0FDDAE76E
:104E4C0030460BB0BDE8F08FC94F0D00022AF8B503
:104E5C00044606D0032A17D0012A22D10B6803601E
:104E6C001FE018200E68FFF710F9054650B13146C7
:104E7C00FFF7C8FE3069B6F9147008B102F036FAC3
:104E8C002861AF8225600CE0046854B104F1100075
:104E9C00FFF7EDFD2046FFF7D2FD1821204601F06B
:104EAC00D0F80020F8BD38B5002383608B68044629
:104EBC000D462BB102229847EB68E360AB68A36008
:104ECC00204638BD022A70B5044606D0032A11D0FC
:104EDC00012A18D10B68036015E014200E68FFF747
:104EEC00D4F8054620B13146FFF7DDFF337C2B7437
:104EFC00256008E0046834B12046FFF7A0FD1421BA
:104F0C00204601F09EF8002070BD0000F0B5002393
:104F1C0087B00C46BFF35F8F50E8006F40E800325B
:104F2C00002AF9D1BFF35F8F002E3FD01846FFF750
:104F3C004BFC074620B121463046FFF753FE2EE0CE
:104F4C00314601A8FFF7AFFF23788DF814301020FD
:104F5C00FFF79BF80546D0B187601420FFF795F852
:104F6C00044678B18760014601A8FFF706FE039B53
:104F7C00A268A360049B0392E268E3609DF814307E
:104F8C00049223740A4BEB600A4B2C60AB6001A8B3
:104F9C00FFF755FD002229460748FFF71DFC304658
:104FAC00FFF74DFD1021304601F04BF807B0F0BD76
:104FBC00034C0D00D14E0D0085490D0030B585B068
:104FCC0004460D4668461146FFF7B9FD7CB124B284
:104FDC0028460DB102F08AF9029002A96846ADF894
:104FEC000C40FFF71FFE02A8FFF741FD1DE00098E3
:104FFC008DF808404FF00102D0E84F3FA34203D197
:10500C00C0E8412F0029F7D102D08DF808300CE010
:10501C0010F10C014FF0010318BF0373BFF35F8F46
:10502C00043000F8033CFFF771FF01A8FFF7D7FC31
:10503C0005B030BD002211464068FFF749BC002284
:10504C0011464068FFF754BC00224068FFF748BC8B
:10505C00002281F001014068FFF732BC00231A46A0
:10506C0019464068FFF724BC00231A4619464068CD
:10507C00FFF716BC002211464068FFF709BC00225E
:10508C0011464068FFF7F4BB002202214068FFF78D
:10509C00F7BB00231A464068FFF7E2BB024B032222
:1050AC005A60024A1A607047D8E303203C740D0022
:1050BC007047F8B5064615460C468F18BC4206D00C
:1050CC00336814F8011B9B6830469847F6E728466E
:1050DC00F8BD0022007CFFF797BA0021007CFFF797
:1050EC009BBA0021007CFFF79FBA0021007CFFF7E0
:1050FC00A3BA0021007CFFF7A7BA10B5142104460F
:10510C0000F09FFF204610BD10B5044600236360DD
:10511C004FF47A73A360044B217408462360114644
:10512C00FFF7A2FA204610BD70740D000021007C20
:10513C00FFF792BA704710B51821044600F081FFB2
:10514C00204610BDF0B5037D062B8DB00E4600F148
:10515C0004074FF0000402D000F1080518E00CAD74
:10516C00394605F8304D2F232A460A20FFF784FADA
:10517C00284602F0D6F833680246DB6829463046EA
:10518C0098470FE024B12E21304600F0D9F90444A1
:10519C0015F8011D0A22304600F0EBF9BD4204441B
:1051AC00F0D120460DB0F0BD10B5054B04461122D0
:1051BC0040F8043B002102F056F8204610BD00BF19
:1051CC0098740D000346074A10B543F8042B01F1FF
:1051DC00100251F8044B43F8044B9142F9D10A7870
:1051EC001A7010BD98740D0010B59DF8084044EA73
:1051FC00032343EA024242EA01610423416003753E
:10520C0010BD37B50D788B784A78C978009129464E
:10521C00FFF7EAFF03B030BD014B024A1A6070473A
:10522C00E0E3032017750D00002211464068FFF7DC
:10523C004FBB002211464068FFF75ABB0022406862
:10524C00FFF74EBB002281F001014068FFF738BB2D
:10525C0000231A4601214068FFF72ABB00231A4697
:10526C0019464068FFF71CBB002211464068FFF747
:10527C000FBB002211464068FFF7FABA0022022148
:10528C004068FFF7FDBA00231A464068FFF7E8BAFA
:10529C0038B5054688B104684CB1A3681BB103222C
:1052AC002146204698471021204600F0CAFE284689
:1052BC001421BDE8384000F0C4BE38BD10B10368FD
:1052CC005B681847704710B503680446BBB1586853
:1052DC00FFF732F978B923685A7C12B95868FFF78E
:1052EC0033F923685868FFF737F9206800232360E7
:1052FC0028B1FFF7CDFF206808B1FFF7C9FF2046A2
:10530C0010BD38B50446D0F8C40108B1FEF7C1FE93
:10531C00D4F8C00108B1FFF72FF9D4F8BC5135B15E
:10532C002846FFF7D0FF0421284600F08AFE2068AB
:10533C0008B1FFF7C3FF204638BD000010B5044B81
:10534C00044640F8083BFFF7DCFF204610BD00BFC9
:10535C008C750D0038B50E4C0E4B236000250223C6
:10536C0004F5E4706360A560C4F8C451C4F8C85176
:10537C00FFF7FAF8084BC4F8CC5184F8D0512360ED
:10538C002046064A0649BDE8384000F055BE00BF2D
:10539C00E4E30320C0750D008C750D0030E3032091
:1053AC0049530D0000231A464068FFF759BA0022F2
:1053BC0002214068FFF764BA002211464068FFF7EB
:1053CC0057BA002211464068FFF762BA00231A460A
:1053DC0019464068FFF764BA00231A46194640681C
:1053EC00FFF766BA002281F001014068FFF768BA46
:1053FC0000224068FFF774BA002211464068FFF79C
:10540C0077BA002211464068FFF762BA2DE9F043E3
:10541C00002495B016460D460746FFF7C5FE2146FB
:10542C0020220CA8009401F01EFF40230C9321466F
:10543C006B460CAA3046FFF72FF90446002844D1DE
:10544C00024601216868FFF723FA022180462246B2
:10545C006868FFF71DFA009E81462146002E34D065
:10546C00002932D17368022B02D00A2B09D02AE012
:10547C00B8F1000F27D0716938460431FFF7C1FE2F
:10548C0020E0B9F1000F1ED07469112201A801F0BF
:10549C00EAFE06238DF8143001AD04F1080318342C
:1054AC00186859682A4603C20833A3421546F7D137
:1054BC0001A906A807ADFFF785FE0FCD3C1D0FC453
:1054CC002B6823700121F669C8E70098FFF7DCF818
:1054DC00384615B0BDE8F083024B034A1A6000222F
:1054EC005A607047B8E50320C0750D00F8B5064644
:1054FC000D468F180024BD420CD0336815F8011BE3
:10550C009B6830469847002801DB0444F3E7002CE5
:10551C0008BF04462046F8BD70B505460C46084643
:10552C0049B101F0FEFE2B68024621462846DB6895
:10553C00BDE87040184770BD08B5FFF7EDFF08BD1A
:10554C0003689B68184738B50D210546FFF7F8FF2F
:10555C000A2104462846FFF7F3FF204438BD38B52E
:10556C000546FFF7D9FF04462846FFF7ECFF204419
:10557C0038BD30B58BB00B4600218DF82410012AB4
:10558C0098BF0A220DF12304B3FBF2F505FB12338D
:10559C0003F0FF03092B94BF30333733DBB22146C2
:1055AC0004F801392B46002DEED1FFF7B5FF0BB0F7
:1055BC0030BD00002DE9F04757EC106B82460D46CC
:1055CC0010EE102A3B4610EE100A394601F024FC6E
:1055DC0008B14E4912E027F000494FF0FF324C4B16
:1055EC003046494601F018FC68B94FF0FF32484B81
:1055FC003046494601F0F2FB28B946495046FFF7C0
:10560C008BFFBDE8F0874FF06042434B3046394684
:10561C0001F0F8FB08B14149F0E74FF06042404B14
:10562C003046394601F0D0FB0028F4D1002200238B
:10563C003046394601F0C8FB40B12D215046FFF7EA
:10564C007FFF07F1004304461F4600E0044635493E
:10565C004FF0000800205FFA88F39D4206D9002223
:10566C00314B01F069FA08F10108F4E732463B4688
:10567C0000F086FF0F46064601F00CFC0A2201469C
:10568C0080465046FFF775FF0444E5B3404601F0F1
:10569C00B3F802460B463046394600F06FFF06461B
:1056AC000F4650462149FFF737FF044400221E4B9A
:1056BC003046394601F016F906460F4601F0C2FB9A
:1056CC00B0F1000907DA2D215046FFF739FFC9F177
:1056DC000001804602E049464FF000080A2250467D
:1056EC00FFF747FF40440444484601F095F8024652
:1056FC000B463046394600F041FF013D15F0FF05E1
:10570C0006460F46D2D12046BDE8F087EC750D0059
:10571C00FFFFEF7FF6750D00FFFFEF41F0750D00F9
:10572C00FFFFEFC10000E03F00002440F4750D00C6
:10573C00C9B2FFF73FBF38B5C9B20546FFF73AFF0C
:10574C0004462846FFF7FFFE204438BD10B504463A
:10575C00FFF775F9204610BD0348044A044900239D
:10576C00836000F069BC00BFC0E5032030E3032078
:10577C0059570D0010B5044601700846FEF794FF0A
:10578C0000236360204610BD0078FEF795BF000033
:10579C002DE9F14F59EC108B07460E4600220023E1
:1057AC0010EE100A494601F00FFB28B109F1004335
:1057BC0099462D2333700136002301240A22D9B2D5
:1057CC008F4202D954430133F9E7204601F024F803
:1057DC0042464B4601F086F882468B4601F092FB1E
:1057EC008046894601F048F802460B465046594619
:1057FC0000F0C4FE0022174B01F0FAFA18B118F1B0
:10580C00010849F10009E51722462B464046494656
:10581C0001F060FB01230A22314600F08EFAAFB191
:10582C00304601F07EFD2E233354013006442246CF
:10583C002B464046494601F04DFB3B46104631464F
:10584C000A2201B0BDE8F04F00F077BA01B0BDE814
:10585C00F08F00BF0000E03F10B504460068FFF772
:10586C0057F8204610BD10B50446006808B1FFF784
:10587C004FF800232360A360636010BD38B5044665
:10588C000D4600680131FFF74BF810B184E8210098
:10589C00012038BD10B50368044613B143688B4230
:1058AC0007D22046FFF7EAFF20B1A3680BB92268A4
:1058BC001370012010BD70B50E46114604461546F6
:1058CC00FFF7E8FF18B92046FFF7CDFF09E02A469D
:1058DC003146A560206801F0BBFC2268A36800215A
:1058EC00D154204670BD38B5002304460360436094
:1058FC00836003730D4639B1084601F012FD294649
:10590C0002462046FFF7D7FF204638BD884210B527
:10591C000B46044607D0096819B19A68FFF7CBFF0C
:10592C0001E0FFF7A0FF204610BD10B50023044690
:10593C000360436083600373FFF7E8FF204610BDEC
:10594C0038B505460C4641B1084601F0EAFC214643
:10595C0002462846FFF7AFFF01E0FFF784FF284619
:10596C0038BD10B500238AB00446036043608360E1
:10597C000373C8B201A9FFF70BFF01A92046FFF77B
:10598C00DFFF20460AB010BD70B504460E4609B9BB
:10599C00002070BD6AB18368D5182946FFF77AFFDD
:1059AC000028F5D02068A3683146184401F096FC15
:1059BC00A560012070BD8A680968FFF7E5BF38B59E
:1059CC0005460C46084641B101F0ABFC21460246A7
:1059DC002846BDE83840FFF7D7BF38BD13B50A22BB
:1059EC0004460846694600F0D0F9684601F099FC77
:1059FC00694602462046FFF7C7FF02B010BD08B546
:105A0C0082680B4612B919B9012008BD11B9036897
:105A1C00187802E0006801F057FCB0FA80F04009F9
:105A2C0008BD10B50446006818B1FEF771FF0023DD
:105A3C00236010BD10B50446FFF7F3FF204610BDE0
:105A4C0010B5094C00204FF6FF732060A080A071A8
:105A5C0020816381FEF7B0FE2046044A0449BDE86C
:105A6C00104000F0E9BA00BFD0E5032030E303207A
:105A7C00415A0D00024B1A68024B1A60704700BF66
:105A8C00C0E20320DCE5032070474174704708B581
:105A9C00007CFEF751FE20EAE07008BD08B5007CE2
:105AAC00FEF722FE20EAE07008BD08B5007CFEF788
:105ABC002BFE30EA200028BF4FF0FF3008BD08B5A0
:105ACC00007CFEF719FE30EA200028BF4FF0FF30B3
:105ADC0008BD007CFEF720BE10B51421044600F072
:105AEC00B0FA204610BD70B5457C04460E4625B96B
:105AFC00007CFEF721FE002805DD3146207CBDE848
:105B0C007040FEF7E9BD284670BD000010B5044694
:105B1C0008461146002262604FF47A72A260054A70
:105B2C0022600122207462741A46FEF7CDFD2046D5
:105B3C0010BD00BF2C760D00007CFEF7F5BD0000FB
:105B4C0038B50C4D296811F0010411D12846FEF727
:105B5C00A2FA68B1084A094B09482146FFF7D6FF5B
:105B6C002846FEF79DFA074A0749054800F064FAF3
:105B7C00034838BD78E603207CE60320F4E50320D7
:105B8C00E0E5032030E30320955A0D004174704783
:105B9C00704708B50021007CFEF7F6FD30EA2000C6
:105BAC0028BF4FF0FF3008BD08B50121007CFEF77F
:105BBC00EBFD30EA200028BF4FF0FF3008BD08B5E0
:105BCC00007CFEF7D9FD20EAE07008BD08B5007C2A
:105BDC00FEF7CAFD20EAE07008BD007CFEF7E4BDCC
:105BEC0010B51421044600F02CFA204610BD38B52F
:105BFC000446007C0D46FEF7BFFD002801DC607CEE
:105C0C0028B12946207CFEF7C7FD20EAE07038BD9C
:105C1C0010B50446002363604FF47A73A360054B00
:105C2C00236001230846217463741146FEF78CFD32
:105C3C00204610BD5C760D000022007CFEF78CBD6A
:105C4C0010B514220446002101F00DFB204610BDB6
:105C5C0030B50E4D87B001A8FFF7F2FF296811F09F
:105C6C00010410D12846FEF716FA60B101AA2146AC
:105C7C000748FFF7CDFF2846FEF712FA054A0649FA
:105C8C00034800F0D9F9024807B030BD00E7032003
:105C9C0004E7032030E303209D5B0D000022114636
:105CAC004068FEF7F5BD002211464068FEF710BEB5
:105CBC00002211464068FEF71BBE00224068FEF72A
:105CCC000FBE002281F001014068FEF7F9BD0023F0
:105CDC001A4619464068FEF7EBBD00231A461946D2
:105CEC004068FEF7DDBD002211464068FEF7C0BDDE
:105CFC00002202214068FEF7C3BD00231A4640680B
:105D0C00FEF7AEBD024B04225A60024A1A6070477D
:105D1C0018E703208C760D0010B5044601F001FB4A
:105D2C00013823182046984206D20278197800F8D8
:105D3C00011B03F80129F6E710BD70B50C46911E46
:105D4C00222920D82546294610B9234430220EE0BA
:105D5C00B0FBF2F602FB1600C1B205F8011B0928D4
:105D6C0094BF3031573105F8011C3046EBE79942AE
:105D7C0002D201F8012BFAE7002320460B70FFF743
:105D8C00CBFF204670BD002070BD38B5031E0C46FD
:105D9C0015460BDAB3F1004F4FF02D0214BF5842E9
:105DAC00184601230A702A46194400E00123FFF724
:105DBC00C4FF204638BD000008B50C4B33B1FFF7CB
:105DCC0047FF03681B699847002809DC084B63B13F
:105DDC00FFF7B6FE03681B699847002803DC08BD73
:105DEC00AFF30080F2E7AFF3008008BD00000000C5
:105DFC000000000008B5FFF7DFFFFEF7CDFB014BFD
:105E0C00186008BD34E703200248034A0349121AFC
:105E1C0001F01EBA00F4032004F4032068770D008F
:105E2C0007B5002300931A466FF07701FEF7E6FCE6
:105E3C0003B05DF804FB000007B543880A2B08D0BB
:105E4C00502B09D1094B1B683BB103B05DF804EB37
:105E5C001847FFF7E5FF06E0002300931A466FF0A2
:105E6C007701FEF7CBFC03B05DF804FB20E70320C1
:105E7C0038B5104C104D2368AB42104B0CBF0122AF
:105E8C0000221A7002D0FFF7BFFF2560FEF77CFBE3
:105E9C00044601F0F1F90A4B13B12046AFF3008030
:105EAC0000210748FEF7D4FC00210648BDE8384025
:105EBC00FEF79ABC00F403201E1C279A24E703204B
:105ECC0000000000455E0D0070B5184E316811F0F1
:105EDC00010504460AD13046FEF7DDF830B12946FB
:105EEC001348FFF747FC3046FEF7DAF81048FFF787
:105EFC004BFC28B1A4F10B03022B01D8002070BD80
:105F0C0000F074F8FFF712F908B1012CF6D9FFF77D
:105F1C0017FEFFF711FE18B1A4F10903012BEDD9FF
:105F2C00232C8CBF0020012070BD00BF28E703206C
:105F3C002CE70320232838B504460D460AD8FF2940
:105F4C0008D0FFF7C1FF28B129462046BDE83840EC
:105F5C00FEF73ABB38BD38B504460D46FEF73CFBA0
:105F6C00FF2810D0062804D84D2323FA00F0C307CD
:105F7C0009D42046FFF7A8FF28B129462046BDE8E2
:105F8C003840FEF731BB38BD0D2810B504469CBF18
:105F9C000E34A4B22046FFF797FF50B103212046E0
:105FAC00FEF70AFB032804D12046BDE81040FEF79B
:105FBC0023BB002010BD000070B5044614252A46F2
:105FCC00094E002101F04FF9258020253146A560AE
:105FDC002561284600F04FF831466060284600F0F5
:105FEC004AF8E060204670BDB8760D0030B50E4D15
:105FFC00296811F0010487B013D12846FEF74BF83D
:10600C0078B101A8FFF7D8FF01AA21460748FFF78E
:10601C007BF82846FEF744F8054A0649034800F089
:10602C000BF8024807B030BD38E703203CE70320EB
:10603C0030E30320BD500D000B460146184601F01D
:10604C00F9B8FEF724B80000024B1868BFF35F8F55
:10605C00704700BF50E7032010B5002814BF04465A
:10606C0001242046FEF74CFC20B9FFF7EDFF08B1E8
:10607C008047F6E710BDFFF7EFBF08B5FEF758FCF9
:10608C00244B1A68D0075CBF01221A60224B1A6895
:10609C00D1075CBF01221A60204B1A68D2075CBF83
:1060AC0001221A601E4B1A68D0075CBF01221A60CD
:1060BC001C4B1A68D1075CBF01221A601A4B1A6874
:1060CC00D2075CBF01221A60184B1A68D0075CBF5C
:1060DC0001221A60164B1A68D1075CBF01221A60A4
:1060EC00144B1A68D2075CBF01221A60124B1A6853
:1060FC00D0075CBF01221A60104B1A68D1075CBF35
:10610C0001221A600E4B1A68D2075CBF01221A607A
:10611C00704700BF80E703207CE7032078E703206B
:10612C0074E7032070E703206CE7032068E7032083
:10613C0064E7032060E703205CE7032058E70320B3
:10614C0054E70320184B1A68D1075CBF01221A6070
:10615C00164B1A68D2075CBF01221A60144B1A68DE
:10616C00D0075CBF01221A60124B1A68D1075CBFC2
:10617C0001221A60104B1A68D2075CBF01221A6008
:10618C000E4B1A68D0075CBF01221A600C4B1A68C0
:10619C00D1075CBF01221A600A4B1A68D2075CBF98
:1061AC0001221A60704700BFA0E703209CE7032080
:1061BC0098E7032094E7032090E703208CE7032063
:1061CC0088E7032084E70320184B1A68D1075CBFCB
:1061DC0001221A60164B1A68D2075CBF01221A60A2
:1061EC00144B1A68D0075CBF01221A60124B1A6854
:1061FC00D1075CBF01221A60104B1A68D2075CBF32
:10620C0001221A600E4B1A68D0075CBF01221A607B
:10621C000C4B1A68D1075CBF01221A600A4B1A6832
:10622C00D2075CBF01221A60704700BFC0E7032091
:10623C00BCE70320B8E70320B4E70320B0E7032052
:10624C00ACE70320A8E70320A4E70320244B1A683B
:10625C00D0075CBF01221A60224B1A68D1075CBFC1
:10626C0001221A60204B1A68D2075CBF01221A6007
:10627C001E4B1A68D0075CBF01221A601C4B1A68AF
:10628C00D1075CBF01221A601A4B1A68D2075CBF97
:10629C0001221A60184B1A68D0075CBF01221A60E1
:1062AC00164B1A68D1075CBF01221A60144B1A688E
:1062BC00D2075CBF01221A60124B1A68D0075CBF70
:1062CC0001221A60104B1A68D1075CBF01221A60B8
:1062DC000E4B1A68D2075CBF01221A60704700BFD0
:1062EC00F0E70320ECE70320E8E70320E4E70320D2
:1062FC00E0E70320DCE70320D8E70320D4E7032002
:10630C00D0E70320CCE70320C8E70320C4E7032031
:10631C002DE9F0432DED028B8BB055EC104B00F0BA
:10632C0057F8294BB0EE408AF0EE608A93F9006082
:10633C00731C12D022462B462046294600F06CFDD9
:10634C00074650B94FF000084FF000092046294687
:10635C0042464B4600F038FD40B9B0EE480AF0EE2C
:10636C00680A0BB0BDEC028BBDE8F083174B0897A5
:10637C000122CDE90445CDE902458DE80C00B6B10A
:10638C0042464B464046494600F0D6FB022ECDE92C
:10639C0006010ED1FEF7DCFA21230360089B73B9CA
:1063AC009DED060B0BB0BDEC028BBDE8F083CDE987
:1063BC000689684600F0DCF80028EFD1EAE7FEF722
:1063CC00C7FA089B0360EBE7C4E20320BC760D0020
:1063DC002DE9F041654955EC104B0E462940B14270
:1063EC0000F09780002D2B4610EE102A74DD2F152F
:1063FC007FD0A7F2FF37C3F31303F90743F48013DD
:10640C0065D403EBD27100260B447F105200B646C4
:10641C0016204FF400110EEB01049C424FEAD2758A
:10642C004FEA420203DC1B1B04EB010E0E44013845
:10643C0005EB43034FEA5101EDD1844620244FF084
:10644C00004109E020D003EBD275013C4FEA510129
:10645C002B444FEA420220D09E4501EB0C05F1DAA9
:10646C00002D05EB010C09DBF0469542CEEB030346
:10647C0000D9013B521B0844C646E4E7BCF1000FAF
:10648C00F2DB0EF10108F0E795421ED8002D05EB6A
:10649C00010C50DB98460023ECE7134304D0421C5C
:1064AC004DD000F00103184440087110F30701F1BE
:1064BC007F5101F5001148BF40F0004001EB07533C
:1064CC00024643EC102BBDE8F0817346BBE75B0042
:1064DC0003EBD273520094E725F00041214328D0FE
:1064EC00ADBB2F46D30A153F5205002BFAD0DD0267
:1064FC0028D4002100E001465B00DC0201F1010020
:10650C00F9D5C0F1200422FA04F423437F1A824007
:10651C006FE710EE102A2B4610EE100A294600F0F9
:10652C00E1F922462B4600F02BF841EC100BBDE8AC
:10653C00F081BDE8F081BCF1000FA2DAAAE70136C8
:10654C002046B2E720244FF0FF310020DBE710EEAD
:10655C00102A2B462046294600F010F802460B461E
:10656C0000F0EAFA41EC100BBDE8F0810000F07F7E
:10657C000020704781F0004102E000BF83F000432F
:10658C0030B54FEA41044FEA430594EA050F08BFC2
:10659C0090EA020F1FBF54EA000C55EA020C7FEA86
:1065AC00645C7FEA655C00F0E2804FEA5454D4EB03
:1065BC005555B8BF6D420CDD2C4480EA020281EACD
:1065CC00030382EA000083EA010180EA020281EA05
:1065DC000303362D88BF30BD11F0004F4FEA013157
:1065EC004FF4801C4CEA113102D0404261EB410166
:1065FC0013F0004F4FEA03334CEA133302D05242EC
:10660C0063EB430394EA050F00F0A780A4F10104A7
:10661C00D5F1200E0DDB02FA0EFC22FA05F28018E1
:10662C0041F1000103FA0EF2801843FA05F35941C7
:10663C000EE0A5F120050EF1200E012A03FA0EFC46
:10664C0028BF4CF0020C43FA05F3C01851EBE37170
:10665C0001F0004507D54FF0000EDCF1000C7EEB8D
:10666C0000006EEB0101B1F5801F1BD3B1F5001FCB
:10667C000CD349085FEA30004FEA3C0C04F10104EA
:10668C004FEA445212F5800F80F09A80BCF1004F13
:10669C0008BF5FEA500C50F1000041EB045141EA95
:1066AC00050130BD5FEA4C0C404141EB010111F496
:1066BC00801FA4F10104E9D191F0000F04BF014641
:1066CC000020B1FA81F308BF2033A3F10B03B3F11F
:1066DC0020020CDA0C3208DD02F1140CC2F10C02AF
:1066EC0001FA0CF021FA02F10CE002F11402D8BF0D
:1066FC00C2F1200C01FA02F120FA0CFCDCBF41EAD9
:10670C000C019040E41AA2BF01EB0451294330BDA7
:10671C006FEA04041F3C1CDA0C340EDC04F1140484
:10672C00C4F1200220FA04F001FA02F340EA03005B
:10673C0021FA04F345EA030130BDC4F10C04C4F1A1
:10674C00200220FA02F001FA04F340EA0300294681
:10675C0030BD21FA04F0294630BD94F0000F83F4CB
:10676C00801306BF81F480110134013D4EE77FEAAE
:10677C00645C18BF7FEA655C29D094EA050F08BFFA
:10678C0090EA020F05D054EA000C04BF19461046DB
:10679C0030BD91EA030F1EBF0021002030BD5FEA1F
:1067AC00545C05D14000494128BF41F0004130BD47
:1067BC0014F580043CBF01F5801130BD01F000459B
:1067CC0045F0FE4141F470014FF0000030BD7FEA0E
:1067DC00645C1ABF194610467FEA655C1CBF0B4609
:1067EC00024650EA013406BF52EA033591EA030F20
:1067FC0041F4002130BD00BF90F0000F04BF002118
:10680C00704730B54FF4806404F132044FF000054A
:10681C004FF0000150E700BF90F0000F04BF0021C3
:10682C00704730B54FF4806404F1320410F0004529
:10683C0048BF40424FF000013EE700BF42004FEA24
:10684C00E2014FEA31014FEA02701FBF12F07F43A1
:10685C0093F07F4F81F06051704792F0000F14BF9E
:10686C0093F07F4F704730B54FF4607401F00045E2
:10687C0021F0004120E700BF50EA010208BF704739
:10688C0030B54FF000050AE050EA010208BF70472E
:10689C0030B511F0004502D5404261EB41014FF497
:1068AC00806404F132045FEA915C3FF4DCAE4FF09B
:1068BC0003025FEADC0C18BF03325FEADC0C18BF82
:1068CC00033202EBDC02C2F1200300FA03FC20FAD3
:1068DC0002F001FA03FE40EA0E0021FA02F1144420
:1068EC00C1E600BF70B54FF0FF0C4CF4E06C1CEA35
:1068FC0011541DBF1CEA135594EA0C0F95EA0C0FAA
:10690C0000F0DEF82C4481EA030621EA4C5123EA1C
:10691C004C5350EA013518BF52EA033541F480114B
:10692C0043F4801338D0A0FB02CE4FF00005E1FBFE
:10693C0002E506F00042E0FB03E54FF00006E1FB48
:10694C0003569CF0000F18BF4EF0010EA4F1FF048B
:10695C00B6F5007F64F5407404D25FEA4E0E6D41CB
:10696C0046EB060642EAC62141EA55514FEAC520DC
:10697C0040EA5E504FEACE2EB4F1FD0C88BFBCF558
:10698C00E06F1ED8BEF1004F08BF5FEA500E50F109
:10699C00000041EB045170BD06F0004646EA0101CF
:1069AC0040EA020081EA0301B4EB5C04C2BFD4EB01
:1069BC000C0541EA045170BD41F480114FF0000EFA
:1069CC00013C00F3AB8014F1360FDEBF002001F068
:1069DC00004170BDC4F10004203C35DA0C341BDCE2
:1069EC0004F11404C4F1200500FA05F320FA04F0B4
:1069FC0001FA05F240EA020001F0004221F00041E8
:106A0C0010EBD37021FA04F642EB06015EEA430E5A
:106A1C0008BF20EAD37070BDC4F10C04C4F120058A
:106A2C0000FA04F320FA05F001FA04F240EA02003D
:106A3C0001F0004110EBD37041F100015EEA430E0E
:106A4C0008BF20EAD37070BDC4F1200500FA05F22E
:106A5C004EEA020E20FA04F301FA05F243EA0203AD
:106A6C0021FA04F001F0004121FA04F220EA0200BC
:106A7C0000EBD3705EEA430E08BF20EAD37070BD02
:106A8C0094F0000F0FD101F00046400041EB0101E2
:106A9C0011F4801F08BF013CF7D041EA060195F0C4
:106AAC00000F18BF704703F00046520043EB03037E
:106ABC0013F4801F08BF013DF7D043EA060370476B
:106ACC0094EA0C0F0CEA135518BF95EA0C0F0CD076
:106ADC0050EA410618BF52EA4306D1D181EA0301BC
:106AEC0001F000414FF0000070BD50EA410606BFB6
:106AFC001046194652EA430619D094EA0C0F02D1FB
:106B0C0050EA013613D195EA0C0F05D152EA03363F
:106B1C001CBF104619460AD181EA030101F000415D
:106B2C0041F0FE4141F470014FF0000070BD41F0A6
:106B3C00FE4141F4780170BD70B54FF0FF0C4CF480
:106B4C00E06C1CEA11541DBF1CEA135594EA0C0F9F
:106B5C0095EA0C0F00F0A7F8A4EB050481EA030EEC
:106B6C0052EA03354FEA013100F088804FEA0333D3
:106B7C004FF0805545EA131343EA12634FEA0222A1
:106B8C0045EA111545EA10654FEA00260EF0004162
:106B9C009D4208BF964244F1FD0404F5407402D2B4
:106BAC005B084FEA3202B61A65EB03055B084FEA45
:106BBC0032024FF480104FF4002CB6EB020E75EB42
:106BCC00030E22BFB61A754640EA0C005B084FEA6A
:106BDC003202B6EB020E75EB030E22BFB61A7546E7
:106BEC0040EA5C005B084FEA3202B6EB020E75EB32
:106BFC00030E22BFB61A754640EA9C005B084FEAAA
:106C0C003202B6EB020E75EB030E22BFB61A7546B6
:106C1C0040EADC0055EA060E18D04FEA051545EAA5
:106C2C0016754FEA06164FEAC30343EA52734FEA4E
:106C3C00C2025FEA1C1CC0D111F4801F0BD141EAC7
:106C4C0000014FF000004FF0004CB6E711F4801F2C
:106C5C0004BF01430020B4F1FD0C88BFBCF5E06F0C
:106C6C003FF6AFAEB5EB030C04BFB6EB020C5FEA1C
:106C7C00500C50F1000041EB045170BD0EF0004E71
:106C8C004EEA113114EB5C04C2BFD4EB0C0541EAA3
:106C9C00045170BD41F480114FF0000E013C90E6A0
:106CAC0045EA060E8DE60CEA135594EA0C0F08BF64
:106CBC0095EA0C0F3FF43BAF94EA0C0F0AD150EA63
:106CCC0001347FF434AF95EA0C0F7FF425AF1046F6
:106CDC0019462CE795EA0C0F06D152EA03353FF41E
:106CEC00FDAE1046194622E750EA410618BF52EA9B
:106CFC0043067FF4C5AE50EA41047FF40DAF52EA6F
:106D0C0043057FF4EBAE12E74FF0FF3C06E000BF0B
:106D1C004FF0010C02E000BF4FF0010C4DF804CD18
:106D2C004FEA410C7FEA6C5C4FEA430C18BF7FEAD8
:106D3C006C5C1BD001B050EA410C0CBF52EA430C06
:106D4C0091EA030F02BF90EA020F0020704710F186
:106D5C00000F91EA030F58BF994208BF90422CBF15
:106D6C00D8176FEAE37040F0010070474FEA410C0E
:106D7C007FEA6C5C02D150EA013C07D14FEA430C2C
:106D8C007FEA6C5CD6D152EA033CD3D05DF8040B9D
:106D9C00704700BF8446104662468C4619466346CF
:106DAC0000E000BF01B5FFF7B7FF002848BF10F1A6
:106DBC00000F01BD4DF808EDFFF7F4FF0CBF0120EB
:106DCC0000205DF808FB00BF4DF808EDFFF7EAFF67
:106DDC0034BF012000205DF808FB00BF4DF808ED22
:106DEC00FFF7E0FF94BF012000205DF808FB00BF17
:106DFC004DF808EDFFF7CEFF94BF012000205DF8A1
:106E0C0008FB00BF4DF808EDFFF7C4FF34BF0120AD
:106E1C0000205DF808FB00BF4FEA410C7FEA6C5C78
:106E2C0002D150EA013C0AD14FEA430C7FEA6C5C78
:106E3C0002D152EA033C02D14FF0000070474FF0F0
:106E4C00010070474FEA410212F5001215D211D51C
:106E5C006FF47873B3EB625212D94FEAC12343F04B
:106E6C00004343EA505311F0004F23FA02F018BFCD
:106E7C00404270474FF00000704750EA013005D196
:106E8C0011F0004008BF6FF0004070474FF0000059
:106E9C00704700BF4A0011D212F5001211D20DD565
:106EAC006FF47873B3EB62520ED44FEAC12343F004
:106EBC00004343EA505323FA02F070474FF00000AE
:106ECC00704750EA013002D14FF0FF3070474FF05D
:106EDC000000704753B94AB9002908BF00281CBFED
:106EEC004FF0FF314FF0FF3000F0A2B9ADF1080CBC
:106EFC006DE904CE00F02AF8DDF804E0DDE90223A8
:106F0C0004B07047D0B500220E4B06460F46FFF773
:106F1C00E9FCFFF7BFFF0446FFF76EFC00220A4BAB
:106F2C00FFF7E0FC02460B4630463946FFF726FBDE
:106F3C00FFF7B0FF2346002242EA00021046194632
:106F4C00D0BD00BF0000F03D0000F0412DE9F0473E
:106F5C008C460E460446089D002B50D18A4217469B
:106F6C006CD9B2FA82FEBEF1000F0BD0CEF1200428
:106F7C0020FA04F401FA0EF644EA060C02FA0EF7B3
:106F8C0000FA0EF44FEA1749220CBCFBF9F01FFA79
:106F9C0087F809FB10C642EA064600FB08F3B34229
:106FAC0009D9F61900F1FF3280F02281B34240F288
:106FBC001F8102383E44F61AA2B2B6FBF9F309FB64
:106FCC00136642EA064403FB08F8A04509D9E41904
:106FDC0003F1FF3280F00A81A04540F20781023BA9
:106FEC003C44C8EB040443EA00400021002D62D06D
:106FFC0024FA0EF400232C606B60BDE8F0878B4202
:10700C0007D9002D55D0002185E841000846BDE880
:10701C00F087B3FA83F1002940F09080B34202D399
:10702C00824200F2F880841A66EB03060120B44613
:10703C00002D40D085E81010BDE8F08712B901276B
:10704C00B7FBF2F7B7FA87FEBEF1000F35D1F31B91
:10705C004FEA17481FFA87FC0121B3FBF8F0220C0A
:10706C0008FB103642EA06460CFB00F3B34207D984
:10707C00F61900F1FF3202D2B34200F2CE80104674
:10708C00F61AA2B2B6FBF8F308FB136642EA064402
:10709C000CFB03FCA44507D9E41903F1FF3202D21F
:1070AC00A44500F2B5801346CCEB040443EA00403F
:1070BC009CE729462846BDE8F087CEF1200106FA68
:1070CC000EF307FA0EF720FA01F94FEA1748CE40F3
:1070DC0049EA0309B6FBF8FA4FEA194408FB1A66A9
:1070EC001FFA87FC44EA06430AFB0CF29A4200FAA8
:1070FC000EF40AD9DB190AF1FF3180F087809A422D
:10710C0040F28480AAF1020A3B449B1A1FFA89F9C7
:10711C00B3FBF8F108FB113349EA034301FB0CF60E
:10712C009E4207D9DB1901F1FF326BD29E4269D91D
:10713C0002393B449B1B41EA0A418EE7C1F1200E08
:10714C0022FA0EF48B40234320FA0EF706FA01F4D0
:10715C004FEA134C26FA0EF63C43B6FBFCF9270C0F
:10716C000CFB19661FFA83F847EA064609FB08F779
:10717C00B74202FA01F200FA01FA08D9F61809F13D
:10718C00FF3041D2B7423FD9A9F102091E44F61B88
:10719C00A0B2B6FBFCF40CFB146640EA064704FBF9
:1071AC0008F8B84507D9FF1804F1FF3028D2B845C4
:1071BC0026D9023C1F4444EA0940C8EB0707A0FB50
:1071CC0002894F4544464E4614D329D065B3BAEBD9
:1071DC00040367EB060707FA0EFECB40CF404EEADE
:1071EC00030385E888000021BDE8F0871346F8E624
:1071FC001046E0E6B8EB020469EB03060138E5E75C
:10720C000446D8E7114695E78146C0E78A467CE7F5
:10721C00023B3C4448E708460AE702383E442FE765
:10722C00C245E7D33E46D1E72946BDE8F08700BF0B
:10723C00704700BF10B5054C13462CB10A460146E9
:10724C000220AFF3008010BD204610BD00000000EE
:10725C0010B5431E0A44914204D011F8014B03F8B7
:10726C00014FF8E710BD02440346934202D003F8E5
:10727C00011BFAE77047000038B5124B1C68A36B72
:10728C000546D3B91820FDF73BFB43F20E33A06340
:10729C0003804AF6CD33438041F2342383804EF28F
:1072AC006D63C3804DF6EC630381052343810B238F
:1072BC00838101220023C0E90423A36B00221D61FA
:1072CC005A6138BD28E3032010F8012B11F8013B5B
:1072DC00012A28BF9A42F7D0D01A7047034611F8FA
:1072EC00012B03F8012B002AF9D17047024B014600
:1072FC00186800F003B800BF28E3032070B50646F9
:10730C0008460C4600F00DF8451C29463046FDF7A2
:10731C0017FB064618B12A462146FFF799FF30465F
:10732C0070BD034613F8012B002AFBD1181A013843
:10733C00704700001D400D0059400D0085400D00A8
:10734C0089400D000000000074727565007B0022FE
:10735C006176657261676556616C223A2200222C57
:10736C00202274656E736564223A2200227D0050DF
:10737C0075626C697368696E673A00656D67007059
:10738C0075626C69736853746174650074726163BF
:10739C006B537769746368006176657261676556D3
:1073AC00616C0074656E73656400747261636B006C
:1073BC00617665726167652076616C7565203D202C
:1073CC000073746420697320002E207072657641FE
:1073DC0076672B737464203D20002E2063757272C7
:1073EC00656E7420417667203D200052454C415813
:1073FC0021210065303066636536383035386638A3
:10740C003563636365343064353730000000000049
:10741C00000000002D4A0D00334A0D00894A0D0072
:10742C00414A0D002F4A0D00000000000000000032
:10743C009F500D0095500D008B500D0081500D008C
:10744C0075500D0069500D005D500D0055500D002C
:10745C004B500D0041500D0019540D000000000060
:10746C0000000000BD500D0007510D00DF500D0055
:10747C00BF500D00E7500D00EF500D00F7500D0000
:10748C00FF500D00000000000000000051510D00E5
:10749C0041510D0043510D006261756400536572DA
:1074AC0069616C0053657269616C31007479706547
:1074BC0000706172616D00636D6400696400686ED8
:1074CC0064007374726D0066696C74006C766C0089
:1074DC0061646448616E646C65720072656D6F7690
:1074EC006548616E646C657200656E756D48616EA1
:1074FC00646C657273004A534F4E53747265616DC0
:10750C004C6F6748616E646C657200617070002529
:10751C003031307520005D20002564002C200028BF
:10752C00293A2000205B00636F6465203D20002514
:10753C00690064657461696C73203D20000D0A005C
:10754C006C6E00666E00636F6465006465746169DF
:10755C006C006E6F6E6500747261636500696E66B7
:10756C006F007761726E006572726F720070616E7F
:10757C00696300616C6C00000000000000000000FA
:10758C0093520D0089520D007F520D0075520D0063
:10759C0069520D005D520D0051520D0049520D0003
:1075AC003F520D0035520D0019540D000000000023
:1075BC0000000000B1530D00BB530D00C5530D006E
:1075CC00CF530D00D9530D00E5530D00F1530D00B1
:1075DC00FD530D0005540D000F540D0019540D00F2
:1075EC006E616E006F7666002E00696E66005A0042
:1075FC00252B3033643A253032750025592D256DF5
:10760C002D25645425483A254D3A2553257A006199
:10761C00736374696D6500000000000000000000D9
:10762C00955A0D00E55A0D00F35A0D00F9540D0052
:10763C00A95A0D00CB5A0D00B75A0D00DF5A0D0098
:10764C00975A0D009B5A0D0000000000000000002E
:10765C009D5B0D00ED5B0D00FB5B0D00F9540D0007
:10766C00D95B0D009F5B0D00B55B0D00E75B0D005A
:10767C00CB5B0D00995B0D000000000000000000CA
:10768C00075D0D00FD5C0D00F35C0D00A95C0D00A9
:10769C00E75C0D00DB5C0D00CF5C0D00C75C0D00E2
:1076AC00BD5C0D00B35C0D0019540D000000000012
:1076BC0073717274000000000000000000000000F4
:1076CC0000000000000000000000000000000000AE
:1076DC00000000000000000000000000000000009E
:1076EC00000000000000000000000000000000008E
:1076FC00000000000000000000000000000000007E
:10770C00000000000000000000000000000000006D
:10771C000000000000000000430000000D450D00BB
:10772C00054A0D00A9500D0025520D0061530D00A6
:10773C00E5540D0065570D004D5A0D00815A0D0092
:10774C00115D0D008D600D0051610D00D5610D00B6
:04775C0059620D0061
:08776000F8F7FF7F01000000B3
:04776800000000001D
:10776C00E8030000F4010000E80300001B760D00A4
:10777C000100000000000000C4760D00E4760D004E
:10778C0004770D0000000000000000000000000065
:10779C000000000024770D00000000000000000035
:1077AC0000000000000000000000000000000000CD
:1077BC0000000000000000000000000000000000BD
:1077CC0000000000000000000000000000000000AD
:0877DC0000000000C8E20320D8
:1077E400FFFFFFFF00000102030405060708090A62
:1077F4000B0C0D0E0F101112131415161718191A5D
:087804001B1C1D1E1F202800A3
:04780C007856341264
:04000003D000401CCD
:00000001FF
